{
  "contractName": "Storage",
  "abi": [
    {
      "inputs": [],
      "payable": false,
      "stateMutability": "nonpayable",
      "type": "constructor"
    },
    {
      "constant": false,
      "inputs": [
        {
          "internalType": "bytes",
          "name": "name",
          "type": "bytes"
        },
        {
          "internalType": "bytes",
          "name": "pubk",
          "type": "bytes"
        }
      ],
      "name": "newEntity",
      "outputs": [
        {
          "internalType": "bool",
          "name": "",
          "type": "bool"
        }
      ],
      "payable": false,
      "stateMutability": "nonpayable",
      "type": "function"
    },
    {
      "constant": true,
      "inputs": [
        {
          "internalType": "bytes",
          "name": "name",
          "type": "bytes"
        }
      ],
      "name": "getEntitySignPubKey",
      "outputs": [
        {
          "internalType": "bytes",
          "name": "",
          "type": "bytes"
        }
      ],
      "payable": false,
      "stateMutability": "view",
      "type": "function"
    },
    {
      "constant": false,
      "inputs": [
        {
          "internalType": "bytes",
          "name": "id",
          "type": "bytes"
        },
        {
          "internalType": "bytes",
          "name": "cert",
          "type": "bytes"
        }
      ],
      "name": "uploadCert",
      "outputs": [],
      "payable": false,
      "stateMutability": "nonpayable",
      "type": "function"
    },
    {
      "constant": true,
      "inputs": [
        {
          "internalType": "bytes",
          "name": "id",
          "type": "bytes"
        }
      ],
      "name": "getCertNum",
      "outputs": [
        {
          "internalType": "uint256",
          "name": "",
          "type": "uint256"
        }
      ],
      "payable": false,
      "stateMutability": "view",
      "type": "function"
    },
    {
      "constant": true,
      "inputs": [
        {
          "internalType": "bytes",
          "name": "id",
          "type": "bytes"
        },
        {
          "internalType": "uint256",
          "name": "index",
          "type": "uint256"
        }
      ],
      "name": "getCert",
      "outputs": [
        {
          "internalType": "bytes",
          "name": "",
          "type": "bytes"
        }
      ],
      "payable": false,
      "stateMutability": "view",
      "type": "function"
    },
    {
      "constant": true,
      "inputs": [
        {
          "internalType": "uint256",
          "name": "index",
          "type": "uint256"
        }
      ],
      "name": "testGet",
      "outputs": [
        {
          "internalType": "string",
          "name": "",
          "type": "string"
        }
      ],
      "payable": false,
      "stateMutability": "pure",
      "type": "function"
    }
  ],
  "bytecode": "0x608060405234801561001057600080fd5b50610d8b806100206000396000f3fe608060405234801561001057600080fd5b50600436106100625760003560e01c8063255ac9431461006757806386b0a9e91461019b578063b38b5cda14610242578063b78cdc26146103ac578063d963d892146104fe578063f053d73d1461063c575b600080fd5b6101206004803603602081101561007d57600080fd5b810190808035906020019064010000000081111561009a57600080fd5b8201836020820111156100ac57600080fd5b803590602001918460018302840111640100000000831117156100ce57600080fd5b91908080601f016020809104026020016040519081016040528093929190818152602001838380828437600081840152601f19601f82011690508083019250505050505050919291929050505061070b565b6040518080602001828103825283818151815260200191508051906020019080838360005b83811015610160578082015181840152602081019050610145565b50505050905090810190601f16801561018d5780820380516001836020036101000a031916815260200191505b509250505060405180910390f35b6101c7600480360360208110156101b157600080fd5b8101908080359060200190929190505050610819565b6040518080602001828103825283818151815260200191508051906020019080838360005b838110156102075780820151818401526020810190506101ec565b50505050905090810190601f1680156102345780820380516001836020036101000a031916815260200191505b509250505060405180910390f35b6103926004803603604081101561025857600080fd5b810190808035906020019064010000000081111561027557600080fd5b82018360208201111561028757600080fd5b803590602001918460018302840111640100000000831117156102a957600080fd5b91908080601f016020809104026020016040519081016040528093929190818152602001838380828437600081840152601f19601f8201169050808301925050505050505091929192908035906020019064010000000081111561030c57600080fd5b82018360208201111561031e57600080fd5b8035906020019184600183028401116401000000008311171561034057600080fd5b91908080601f016020809104026020016040519081016040528093929190818152602001838380828437600081840152601f19601f820116905080830192505050505050509192919290505050610858565b604051808215151515815260200191505060405180910390f35b6104fc600480360360408110156103c257600080fd5b81019080803590602001906401000000008111156103df57600080fd5b8201836020820111156103f157600080fd5b8035906020019184600183028401116401000000008311171561041357600080fd5b91908080601f016020809104026020016040519081016040528093929190818152602001838380828437600081840152601f19601f8201169050808301925050505050505091929192908035906020019064010000000081111561047657600080fd5b82018360208201111561048857600080fd5b803590602001918460018302840111640100000000831117156104aa57600080fd5b91908080601f016020809104026020016040519081016040528093929190818152602001838380828437600081840152601f19601f8201169050808301925050505050505091929192905050506109f1565b005b6105c16004803603604081101561051457600080fd5b810190808035906020019064010000000081111561053157600080fd5b82018360208201111561054357600080fd5b8035906020019184600183028401116401000000008311171561056557600080fd5b91908080601f016020809104026020016040519081016040528093929190818152602001838380828437600081840152601f19601f82011690508083019250505050505050919291929080359060200190929190505050610a9b565b6040518080602001828103825283818151815260200191508051906020019080838360005b838110156106015780820151818401526020810190506105e6565b50505050905090810190601f16801561062e5780820380516001836020036101000a031916815260200191505b509250505060405180910390f35b6106f56004803603602081101561065257600080fd5b810190808035906020019064010000000081111561066f57600080fd5b82018360208201111561068157600080fd5b803590602001918460018302840111640100000000831117156106a357600080fd5b91908080601f016020809104026020016040519081016040528093929190818152602001838380828437600081840152601f19601f820116905080830192505050505050509192919290505050610bbc565b6040518082815260200191505060405180910390f35b60606001826040518082805190602001908083835b602083106107435780518252602082019150602081019050602083039250610720565b6001836020036101000a03801982511681845116808217855250505050505090500191505090815260200160405180910390206000018054600181600116156101000203166002900480601f01602080910402602001604051908101604052809291908181526020018280546001816001161561010002031660029004801561080d5780601f106107e25761010080835404028352916020019161080d565b820191906000526020600020905b8154815290600101906020018083116107f057829003601f168201915b50505050509050919050565b60606040518060400160405280600581526020017f68656c6c6f0000000000000000000000000000000000000000000000000000008152509050919050565b6000806001846040518082805190602001908083835b60208310610891578051825260208201915060208101905060208303925061086e565b6001836020036101000a03801982511681845116808217855250505050505090500191505090815260200160405180910390206000018054600181600116156101000203166002900490501461094f576040517f08c379a000000000000000000000000000000000000000000000000000000000815260040180806020018281038252600f8152602001807f456e74697479206578697374656421000000000000000000000000000000000081525060200191505060405180910390fd5b6040518060200160405280838152506001846040518082805190602001908083835b602083106109945780518252602082019150602081019050602083039250610971565b6001836020036101000a038019825116818451168082178552505050505050905001915050908152602001604051809103902060008201518160000190805190602001906109e3929190610c31565b509050506001905092915050565b6000826040518082805190602001908083835b60208310610a275780518252602082019150602081019050602083039250610a04565b6001836020036101000a0380198251168184511680821785525050505050509050019150509081526020016040518091039020819080600181540180825580915050906001820390600052602060002001600090919290919091509080519060200190610a95929190610cb1565b50505050565b60606000836040518082805190602001908083835b60208310610ad35780518252602082019150602081019050602083039250610ab0565b6001836020036101000a03801982511681845116808217855250505050505090500191505090815260200160405180910390208281548110610b1157fe5b906000526020600020018054600181600116156101000203166002900480601f016020809104026020016040519081016040528092919081815260200182805460018160011615610100020316600290048015610baf5780601f10610b8457610100808354040283529160200191610baf565b820191906000526020600020905b815481529060010190602001808311610b9257829003601f168201915b5050505050905092915050565b600080826040518082805190602001908083835b60208310610bf35780518252602082019150602081019050602083039250610bd0565b6001836020036101000a0380198251168184511680821785525050505050509050019150509081526020016040518091039020805490509050919050565b828054600181600116156101000203166002900490600052602060002090601f016020900481019282601f10610c7257805160ff1916838001178555610ca0565b82800160010185558215610ca0579182015b82811115610c9f578251825591602001919060010190610c84565b5b509050610cad9190610d31565b5090565b828054600181600116156101000203166002900490600052602060002090601f016020900481019282601f10610cf257805160ff1916838001178555610d20565b82800160010185558215610d20579182015b82811115610d1f578251825591602001919060010190610d04565b5b509050610d2d9190610d31565b5090565b610d5391905b80821115610d4f576000816000905550600101610d37565b5090565b9056fea265627a7a72315820a83287ebfb4ecc26eecde71662f9c8754633fa3bb9f965da84b75365035c3b9964736f6c63430005100032",
  "source": "// SPDX-License-Identifier: MIT\npragma solidity 0.5.16;\n\ncontract Storage {\n\tmapping (bytes => bytes[]) cert_st;\n    // Entity name + Url name > Cert\n\n    mapping (bytes => Keys) key_st;\n    // Entity name > Keys\n\n    // The mapping from entity name to address is omitted\n\n    struct Keys {\n      bytes sign_pubKey;\n    }\n\n\t// event Transfer(address indexed _from, address indexed _to, uint256 _value);\n\n\tconstructor() public {\n\t}\n\n\tfunction newEntity(bytes memory name, bytes memory pubk) public returns(bool) {\n        if(key_st[name].sign_pubKey.length != 0) revert('Entity existed!');\n\t\tkey_st[name] = Keys(pubk);\n\t\treturn true;\n\t}\n\n\tfunction getEntitySignPubKey(bytes memory name) public view returns(bytes memory){\n\t\treturn key_st[name].sign_pubKey;\n\t}\n\n    function uploadCert(bytes memory id, bytes memory cert) public {\n        cert_st[id].push(cert);\n    }\n\n    function getCertNum(bytes memory id) public view returns(uint){\n        return cert_st[id].length;\n    }\n\n    function getCert(bytes memory id, uint index) public view returns(bytes memory){\n        return cert_st[id][index];\n    }\n\n    function testGet(uint index) public pure returns(string memory){\n        return \"hello\";\n    }\n}\n",
  "sourcePath": "/home/vagrant/project/course/repro-wave/pycocks/contracts/metacoin-box/contracts/Storage.sol",
  "compiler": {
    "name": "solc",
    "version": "0.5.16+commit.9c3226ce.Emscripten.clang"
  },
  "schemaVersion": "3.4.3",
  "updatedAt": "2021-12-11T19:11:33.855Z",
  "networkType": "ethereum",
  "devdoc": {
    "methods": {}
  },
  "userdoc": {
    "methods": {}
  }
}