{
  "contractName": "Storage",
  "abi": [
    {
      "inputs": [],
      "payable": false,
      "stateMutability": "nonpayable",
      "type": "constructor"
    },
    {
      "constant": false,
      "inputs": [
        {
          "internalType": "bytes",
          "name": "name",
          "type": "bytes"
        },
        {
          "internalType": "bytes",
          "name": "spubk",
          "type": "bytes"
        },
        {
          "internalType": "bytes",
          "name": "apubk",
          "type": "bytes"
        }
      ],
      "name": "newEntity",
      "outputs": [
        {
          "internalType": "bool",
          "name": "",
          "type": "bool"
        }
      ],
      "payable": false,
      "stateMutability": "nonpayable",
      "type": "function"
    },
    {
      "constant": true,
      "inputs": [
        {
          "internalType": "bytes",
          "name": "name",
          "type": "bytes"
        }
      ],
      "name": "getEntitySignPubKey",
      "outputs": [
        {
          "internalType": "bytes",
          "name": "",
          "type": "bytes"
        }
      ],
      "payable": false,
      "stateMutability": "view",
      "type": "function"
    },
    {
      "constant": true,
      "inputs": [
        {
          "internalType": "bytes",
          "name": "name",
          "type": "bytes"
        }
      ],
      "name": "getEntitySignStatus",
      "outputs": [
        {
          "internalType": "bool",
          "name": "",
          "type": "bool"
        }
      ],
      "payable": false,
      "stateMutability": "view",
      "type": "function"
    },
    {
      "constant": true,
      "inputs": [
        {
          "internalType": "bytes",
          "name": "name",
          "type": "bytes"
        }
      ],
      "name": "getEntityAttestPubKey",
      "outputs": [
        {
          "internalType": "bytes",
          "name": "",
          "type": "bytes"
        }
      ],
      "payable": false,
      "stateMutability": "view",
      "type": "function"
    },
    {
      "constant": false,
      "inputs": [
        {
          "internalType": "bytes",
          "name": "id",
          "type": "bytes"
        },
        {
          "internalType": "bytes",
          "name": "cert",
          "type": "bytes"
        }
      ],
      "name": "uploadCert",
      "outputs": [],
      "payable": false,
      "stateMutability": "nonpayable",
      "type": "function"
    },
    {
      "constant": false,
      "inputs": [
        {
          "internalType": "bytes",
          "name": "certSign",
          "type": "bytes"
        },
        {
          "internalType": "bytes",
          "name": "revokeSign",
          "type": "bytes"
        }
      ],
      "name": "putRevokeSign",
      "outputs": [],
      "payable": false,
      "stateMutability": "nonpayable",
      "type": "function"
    },
    {
      "constant": true,
      "inputs": [
        {
          "internalType": "bytes",
          "name": "certSign",
          "type": "bytes"
        }
      ],
      "name": "getRevokeSign",
      "outputs": [
        {
          "internalType": "bytes",
          "name": "",
          "type": "bytes"
        }
      ],
      "payable": false,
      "stateMutability": "view",
      "type": "function"
    },
    {
      "constant": true,
      "inputs": [
        {
          "internalType": "bytes",
          "name": "id",
          "type": "bytes"
        }
      ],
      "name": "getCertNum",
      "outputs": [
        {
          "internalType": "uint256",
          "name": "",
          "type": "uint256"
        }
      ],
      "payable": false,
      "stateMutability": "view",
      "type": "function"
    },
    {
      "constant": true,
      "inputs": [
        {
          "internalType": "bytes",
          "name": "id",
          "type": "bytes"
        },
        {
          "internalType": "uint256",
          "name": "index",
          "type": "uint256"
        }
      ],
      "name": "getCert",
      "outputs": [
        {
          "internalType": "bytes",
          "name": "",
          "type": "bytes"
        }
      ],
      "payable": false,
      "stateMutability": "view",
      "type": "function"
    },
    {
      "constant": true,
      "inputs": [
        {
          "internalType": "uint256",
          "name": "index",
          "type": "uint256"
        }
      ],
      "name": "testGet",
      "outputs": [
        {
          "internalType": "string",
          "name": "",
          "type": "string"
        }
      ],
      "payable": false,
      "stateMutability": "pure",
      "type": "function"
    }
  ],
  "bytecode": "0x608060405234801561001057600080fd5b50611612806100206000396000f3fe608060405234801561001057600080fd5b506004361061009e5760003560e01c8063b78cdc2611610066578063b78cdc2614610686578063d963d892146107d8578063de8ef5a114610916578063e1b0beaa14610a4a578063f053d73d14610b9c5761009e565b8063255ac943146100a3578063540208c1146101d757806374250264146102aa5780638287a393146104ab57806386b0a9e9146105df575b600080fd5b61015c600480360360208110156100b957600080fd5b81019080803590602001906401000000008111156100d657600080fd5b8201836020820111156100e857600080fd5b8035906020019184600183028401116401000000008311171561010a57600080fd5b91908080601f016020809104026020016040519081016040528093929190818152602001838380828437600081840152601f19601f820116905080830192505050505050509192919290505050610c6b565b6040518080602001828103825283818151815260200191508051906020019080838360005b8381101561019c578082015181840152602081019050610181565b50505050905090810190601f1680156101c95780820380516001836020036101000a031916815260200191505b509250505060405180910390f35b610290600480360360208110156101ed57600080fd5b810190808035906020019064010000000081111561020a57600080fd5b82018360208201111561021c57600080fd5b8035906020019184600183028401116401000000008311171561023e57600080fd5b91908080601f016020809104026020016040519081016040528093929190818152602001838380828437600081840152601f19601f820116905080830192505050505050509192919290505050610d79565b604051808215151515815260200191505060405180910390f35b610491600480360360608110156102c057600080fd5b81019080803590602001906401000000008111156102dd57600080fd5b8201836020820111156102ef57600080fd5b8035906020019184600183028401116401000000008311171561031157600080fd5b91908080601f016020809104026020016040519081016040528093929190818152602001838380828437600081840152601f19601f8201169050808301925050505050505091929192908035906020019064010000000081111561037457600080fd5b82018360208201111561038657600080fd5b803590602001918460018302840111640100000000831117156103a857600080fd5b91908080601f016020809104026020016040519081016040528093929190818152602001838380828437600081840152601f19601f8201169050808301925050505050505091929192908035906020019064010000000081111561040b57600080fd5b82018360208201111561041d57600080fd5b8035906020019184600183028401116401000000008311171561043f57600080fd5b91908080601f016020809104026020016040519081016040528093929190818152602001838380828437600081840152601f19601f820116905080830192505050505050509192919290505050610dfc565b604051808215151515815260200191505060405180910390f35b610564600480360360208110156104c157600080fd5b81019080803590602001906401000000008111156104de57600080fd5b8201836020820111156104f057600080fd5b8035906020019184600183028401116401000000008311171561051257600080fd5b91908080601f016020809104026020016040519081016040528093929190818152602001838380828437600081840152601f19601f820116905080830192505050505050509192919290505050610eed565b6040518080602001828103825283818151815260200191508051906020019080838360005b838110156105a4578082015181840152602081019050610589565b50505050905090810190601f1680156105d15780820380516001836020036101000a031916815260200191505b509250505060405180910390f35b61060b600480360360208110156105f557600080fd5b8101908080359060200190929190505050610ffb565b6040518080602001828103825283818151815260200191508051906020019080838360005b8381101561064b578082015181840152602081019050610630565b50505050905090810190601f1680156106785780820380516001836020036101000a031916815260200191505b509250505060405180910390f35b6107d66004803603604081101561069c57600080fd5b81019080803590602001906401000000008111156106b957600080fd5b8201836020820111156106cb57600080fd5b803590602001918460018302840111640100000000831117156106ed57600080fd5b91908080601f016020809104026020016040519081016040528093929190818152602001838380828437600081840152601f19601f8201169050808301925050505050505091929192908035906020019064010000000081111561075057600080fd5b82018360208201111561076257600080fd5b8035906020019184600183028401116401000000008311171561078457600080fd5b91908080601f016020809104026020016040519081016040528093929190818152602001838380828437600081840152601f19601f82011690508083019250505050505050919291929050505061103a565b005b61089b600480360360408110156107ee57600080fd5b810190808035906020019064010000000081111561080b57600080fd5b82018360208201111561081d57600080fd5b8035906020019184600183028401116401000000008311171561083f57600080fd5b91908080601f016020809104026020016040519081016040528093929190818152602001838380828437600081840152601f19601f820116905080830192505050505050509192919290803590602001909291905050506110e4565b6040518080602001828103825283818151815260200191508051906020019080838360005b838110156108db5780820151818401526020810190506108c0565b50505050905090810190601f1680156109085780820380516001836020036101000a031916815260200191505b509250505060405180910390f35b6109cf6004803603602081101561092c57600080fd5b810190808035906020019064010000000081111561094957600080fd5b82018360208201111561095b57600080fd5b8035906020019184600183028401116401000000008311171561097d57600080fd5b91908080601f016020809104026020016040519081016040528093929190818152602001838380828437600081840152601f19601f8201169050808301925050505050505091929192905050506112b6565b6040518080602001828103825283818151815260200191508051906020019080838360005b83811015610a0f5780820151818401526020810190506109f4565b50505050905090810190601f168015610a3c5780820380516001836020036101000a031916815260200191505b509250505060405180910390f35b610b9a60048036036040811015610a6057600080fd5b8101908080359060200190640100000000811115610a7d57600080fd5b820183602082011115610a8f57600080fd5b80359060200191846001830284011164010000000083111715610ab157600080fd5b91908080601f016020809104026020016040519081016040528093929190818152602001838380828437600081840152601f19601f82011690508083019250505050505050919291929080359060200190640100000000811115610b1457600080fd5b820183602082011115610b2657600080fd5b80359060200191846001830284011164010000000083111715610b4857600080fd5b91908080601f016020809104026020016040519081016040528093929190818152602001838380828437600081840152601f19601f8201169050808301925050505050505091929192905050506113c1565b005b610c5560048036036020811015610bb257600080fd5b8101908080359060200190640100000000811115610bcf57600080fd5b820183602082011115610be157600080fd5b80359060200191846001830284011164010000000083111715610c0357600080fd5b91908080601f016020809104026020016040519081016040528093929190818152602001838380828437600081840152601f19601f820116905080830192505050505050509192919290505050611443565b6040518082815260200191505060405180910390f35b60606001826040518082805190602001908083835b60208310610ca35780518252602082019150602081019050602083039250610c80565b6001836020036101000a03801982511681845116808217855250505050505090500191505090815260200160405180910390206001018054600181600116156101000203166002900480601f016020809104026020016040519081016040528092919081815260200182805460018160011615610100020316600290048015610d6d5780601f10610d4257610100808354040283529160200191610d6d565b820191906000526020600020905b815481529060010190602001808311610d5057829003601f168201915b50505050509050919050565b60006001826040518082805190602001908083835b60208310610db15780518252602082019150602081019050602083039250610d8e565b6001836020036101000a038019825116818451168082178552505050505050905001915050908152602001604051809103902060000160009054906101000a900460ff169050919050565b60006040518060600160405280600115158152602001848152602001838152506001856040518082805190602001908083835b60208310610e525780518252602082019150602081019050602083039250610e2f565b6001836020036101000a038019825116818451168082178552505050505050905001915050908152602001604051809103902060008201518160000160006101000a81548160ff0219169083151502179055506020820151816001019080519060200190610ec19291906114b8565b506040820151816002019080519060200190610ede9291906114b8565b50905050600190509392505050565b60606001826040518082805190602001908083835b60208310610f255780518252602082019150602081019050602083039250610f02565b6001836020036101000a03801982511681845116808217855250505050505090500191505090815260200160405180910390206002018054600181600116156101000203166002900480601f016020809104026020016040519081016040528092919081815260200182805460018160011615610100020316600290048015610fef5780601f10610fc457610100808354040283529160200191610fef565b820191906000526020600020905b815481529060010190602001808311610fd257829003601f168201915b50505050509050919050565b60606040518060400160405280600581526020017f68656c6c6f0000000000000000000000000000000000000000000000000000008152509050919050565b6000826040518082805190602001908083835b60208310611070578051825260208201915060208101905060208303925061104d565b6001836020036101000a03801982511681845116808217855250505050505090500191505090815260200160405180910390208190806001815401808255809150509060018203906000526020600020016000909192909190915090805190602001906110de929190611538565b50505050565b6060600080846040518082805190602001908083835b6020831061111d57805182526020820191506020810190506020830392506110fa565b6001836020036101000a03801982511681845116808217855250505050505090500191505090815260200160405180910390208054905014156111965760006040519080825280601f01601f19166020018201604052801561118e5781602001600182028038833980820191505090505b5090506112b0565b6000836040518082805190602001908083835b602083106111cc57805182526020820191506020810190506020830392506111a9565b6001836020036101000a0380198251168184511680821785525050505050509050019150509081526020016040518091039020828154811061120a57fe5b906000526020600020018054600181600116156101000203166002900480601f0160208091040260200160405190810160405280929190818152602001828054600181600116156101000203166002900480156112a85780601f1061127d576101008083540402835291602001916112a8565b820191906000526020600020905b81548152906001019060200180831161128b57829003601f168201915b505050505090505b92915050565b60606002826040518082805190602001908083835b602083106112ee57805182526020820191506020810190506020830392506112cb565b6001836020036101000a03801982511681845116808217855250505050505090500191505090815260200160405180910390208054600181600116156101000203166002900480601f0160208091040260200160405190810160405280929190818152602001828054600181600116156101000203166002900480156113b55780601f1061138a576101008083540402835291602001916113b5565b820191906000526020600020905b81548152906001019060200180831161139857829003601f168201915b50505050509050919050565b806002836040518082805190602001908083835b602083106113f857805182526020820191506020810190506020830392506113d5565b6001836020036101000a0380198251168184511680821785525050505050509050019150509081526020016040518091039020908051906020019061143e929190611538565b505050565b600080826040518082805190602001908083835b6020831061147a5780518252602082019150602081019050602083039250611457565b6001836020036101000a0380198251168184511680821785525050505050509050019150509081526020016040518091039020805490509050919050565b828054600181600116156101000203166002900490600052602060002090601f016020900481019282601f106114f957805160ff1916838001178555611527565b82800160010185558215611527579182015b8281111561152657825182559160200191906001019061150b565b5b50905061153491906115b8565b5090565b828054600181600116156101000203166002900490600052602060002090601f016020900481019282601f1061157957805160ff19168380011785556115a7565b828001600101855582156115a7579182015b828111156115a657825182559160200191906001019061158b565b5b5090506115b491906115b8565b5090565b6115da91905b808211156115d65760008160009055506001016115be565b5090565b9056fea265627a7a72315820e79bdcc436980d940be5961b718a1dc2a39241fda5bef4ee831aa6c28c4a0a5d64736f6c63430005100032",
  "source": "// SPDX-License-Identifier: MIT\npragma solidity 0.5.16;\n\ncontract Storage {\n    mapping (bytes => bytes[]) cert_st;\n    // Entity name + Url name > Cert\n\n    mapping (bytes => Keys) key_st;\n    // Entity name > Keys\n\n    mapping (bytes => bytes) revoke_st;\n\n    // The mapping from entity name to address is omitted\n\n    struct Keys {\n        bool non_empty;\n        bytes sign_pubKey;\n        bytes attest_pubKey;\n    }\n\n    // event Transfer(address indexed _from, address indexed _to, uint256 _value);\n\n    constructor() public {\n    }\n\n    function newEntity(bytes memory name, bytes memory spubk, bytes memory apubk) public returns(bool) {\n        // if(key_st[name].non_empty) revert('Entity existed!');\n        key_st[name] = Keys(true, spubk, apubk);\n        return true;\n    }\n\n    function getEntitySignPubKey(bytes memory name) public view returns(bytes memory){\n        return key_st[name].sign_pubKey;\n    }\n\n    function getEntitySignStatus(bytes memory name) public view returns(bool){\n        return key_st[name].non_empty;\n    }\n\n    function getEntityAttestPubKey(bytes memory name) public view returns(bytes memory){\n        return key_st[name].attest_pubKey;\n    }\n\n    function uploadCert(bytes memory id, bytes memory cert) public {\n        cert_st[id].push(cert);\n    }\n\n    function putRevokeSign(bytes memory certSign, bytes memory revokeSign) public {\n        revoke_st[certSign] = revokeSign;\n    }\n\n    function getRevokeSign(bytes memory certSign) public view returns(bytes memory) {\n        return revoke_st[certSign];\n    }\n\n    function getCertNum(bytes memory id) public view returns(uint){\n        return cert_st[id].length;\n    }\n\n    function getCert(bytes memory id, uint index) public view returns(bytes memory){\n        if (cert_st[id].length == 0)\n            return new bytes(0);\n        return cert_st[id][index];\n    }\n\n    function testGet(uint index) public pure returns(string memory){\n        return \"hello\";\n    }\n}\n",
  "sourcePath": "/home/vagrant/project/course/repro-wave/pycocks/contracts/storage-box/contracts/Storage.sol",
  "compiler": {
    "name": "solc",
    "version": "0.5.16+commit.9c3226ce.Emscripten.clang"
  },
  "schemaVersion": "3.4.3",
  "updatedAt": "2021-12-15T14:37:39.138Z",
  "networkType": "ethereum",
  "devdoc": {
    "methods": {}
  },
  "userdoc": {
    "methods": {}
  }
}